{
  "_format": "hh-sol-artifact-1",
  "contractName": "WavePortal",
  "sourceName": "contracts/WavePortal.sol",
  "abi": [
    {
      "inputs": [],
      "stateMutability": "payable",
      "type": "constructor"
    },
    {
      "anonymous": false,
      "inputs": [
        {
          "indexed": true,
          "internalType": "address",
          "name": "from",
          "type": "address"
        },
        {
          "indexed": false,
          "internalType": "uint256",
          "name": "timestamp",
          "type": "uint256"
        },
        {
          "indexed": false,
          "internalType": "string",
          "name": "message",
          "type": "string"
        }
      ],
      "name": "NewShake",
      "type": "event"
    },
    {
      "inputs": [],
      "name": "getAllShakes",
      "outputs": [
        {
          "components": [
            {
              "internalType": "address",
              "name": "shaker",
              "type": "address"
            },
            {
              "internalType": "string",
              "name": "message",
              "type": "string"
            },
            {
              "internalType": "uint256",
              "name": "timestamp",
              "type": "uint256"
            }
          ],
          "internalType": "struct WavePortal.Shake[]",
          "name": "",
          "type": "tuple[]"
        }
      ],
      "stateMutability": "view",
      "type": "function"
    },
    {
      "inputs": [],
      "name": "getTotalShakes",
      "outputs": [
        {
          "internalType": "uint256",
          "name": "",
          "type": "uint256"
        }
      ],
      "stateMutability": "view",
      "type": "function"
    },
    {
      "inputs": [
        {
          "internalType": "address",
          "name": "",
          "type": "address"
        }
      ],
      "name": "lastWavedAt",
      "outputs": [
        {
          "internalType": "uint256",
          "name": "",
          "type": "uint256"
        }
      ],
      "stateMutability": "view",
      "type": "function"
    },
    {
      "inputs": [
        {
          "internalType": "string",
          "name": "_message",
          "type": "string"
        }
      ],
      "name": "shake",
      "outputs": [],
      "stateMutability": "nonpayable",
      "type": "function"
    }
  ],
  "bytecode": "0x60806040526200004f6040518060400160405280601c81526020017f596f2c2074686973206973207468652074726565207368616b65722e000000008152506200005560201b6200066d1760201c565b620001e9565b620000f5816040516024016200006c919062000162565b6040516020818303038152906040527f41304fac000000000000000000000000000000000000000000000000000000007bffffffffffffffffffffffffffffffffffffffffffffffffffffffff19166020820180517bffffffffffffffffffffffffffffffffffffffffffffffffffffffff8381831617835250505050620000f860201b60201c565b50565b60008151905060006a636f6e736f6c652e6c6f679050602083016000808483855afa5050505050565b60006200012e8262000186565b6200013a818562000191565b93506200014c818560208601620001a2565b6200015781620001d8565b840191505092915050565b600060208201905081810360008301526200017e818462000121565b905092915050565b600081519050919050565b600082825260208201905092915050565b60005b83811015620001c2578082015181840152602081019050620001a5565b83811115620001d2576000848401525b50505050565b6000601f19601f8301169050919050565b61114a80620001f96000396000f3fe608060405234801561001057600080fd5b506004361061004c5760003560e01c80630c6723b2146100515780631f2d8ab61461006d578063264e7b741461008b578063a42a4663146100a9575b600080fd5b61006b600480360381019061006691906109b0565b6100d9565b005b6100756104d6565b6040516100829190610cb3565b60405180910390f35b610093610627565b6040516100a09190610db7565b60405180910390f35b6100c360048036038101906100be9190610987565b610655565b6040516100d09190610db7565b60405180910390f35b426014600360003373ffffffffffffffffffffffffffffffffffffffff1673ffffffffffffffffffffffffffffffffffffffff168152602001908152602001600020546101269190610ed4565b10610166576040517f08c379a000000000000000000000000000000000000000000000000000000000815260040161015d90610d57565b60405180910390fd5b42600360003373ffffffffffffffffffffffffffffffffffffffff1673ffffffffffffffffffffffffffffffffffffffff1681526020019081526020016000208190555060016000808282546101bc9190610ed4565b925050819055506102026040518060400160405280601781526020017f257320686173207368616b656e2074686520747265652100000000000000000081525033610706565b600260405180606001604052803373ffffffffffffffffffffffffffffffffffffffff16815260200183815260200142815250908060018154018082558091505060019003906000526020600020906003020160009091909190915060008201518160000160006101000a81548173ffffffffffffffffffffffffffffffffffffffff021916908373ffffffffffffffffffffffffffffffffffffffff16021790555060208201518160010190805190602001906102c1929190610867565b506040820151816002015550506000606460015442446102e19190610ed4565b6102eb9190610ed4565b6102f59190610fda565b90506103366040518060400160405280601681526020017f52616e646f6d20232067656e6572617465643a20257300000000000000000000815250826107a2565b806001819055506032811015610482576103856040518060400160405280600781526020017f257320776f6e210000000000000000000000000000000000000000000000000081525033610706565b6000655af3107a40009050478111156103d3576040517f08c379a00000000000000000000000000000000000000000000000000000000081526004016103ca90610d97565b60405180910390fd5b60003373ffffffffffffffffffffffffffffffffffffffff16826040516103f990610c9e565b60006040518083038185875af1925050503d8060008114610436576040519150601f19603f3d011682016040523d82523d6000602084013e61043b565b606091505b505090508061047f576040517f08c379a000000000000000000000000000000000000000000000000000000000815260040161047690610d77565b60405180910390fd5b50505b3373ffffffffffffffffffffffffffffffffffffffff167f5e04ec4fb6534b14edc60480f2afd99f0a9e61458fa69eea43a5f54a11ce76e842846040516104ca929190610dd2565b60405180910390a25050565b60606002805480602002602001604051908101604052809291908181526020016000905b8282101561061e57838290600052602060002090600302016040518060600160405290816000820160009054906101000a900473ffffffffffffffffffffffffffffffffffffffff1673ffffffffffffffffffffffffffffffffffffffff1673ffffffffffffffffffffffffffffffffffffffff16815260200160018201805461058390610fa8565b80601f01602080910402602001604051908101604052809291908181526020018280546105af90610fa8565b80156105fc5780601f106105d1576101008083540402835291602001916105fc565b820191906000526020600020905b8154815290600101906020018083116105df57829003601f168201915b50505050508152602001600282015481525050815260200190600101906104fa565b50505050905090565b600061064d6040518060600160405280602581526020016110f0602591396000546107a2565b600054905090565b60036020528060005260406000206000915090505481565b610703816040516024016106819190610cd5565b6040516020818303038152906040527f41304fac000000000000000000000000000000000000000000000000000000007bffffffffffffffffffffffffffffffffffffffffffffffffffffffff19166020820180517bffffffffffffffffffffffffffffffffffffffffffffffffffffffff838183161783525050505061083e565b50565b61079e828260405160240161071c929190610cf7565b6040516020818303038152906040527f319af333000000000000000000000000000000000000000000000000000000007bffffffffffffffffffffffffffffffffffffffffffffffffffffffff19166020820180517bffffffffffffffffffffffffffffffffffffffffffffffffffffffff838183161783525050505061083e565b5050565b61083a82826040516024016107b8929190610d27565b6040516020818303038152906040527f9710a9d0000000000000000000000000000000000000000000000000000000007bffffffffffffffffffffffffffffffffffffffffffffffffffffffff19166020820180517bffffffffffffffffffffffffffffffffffffffffffffffffffffffff838183161783525050505061083e565b5050565b60008151905060006a636f6e736f6c652e6c6f679050602083016000808483855afa5050505050565b82805461087390610fa8565b90600052602060002090601f01602090048101928261089557600085556108dc565b82601f106108ae57805160ff19168380011785556108dc565b828001600101855582156108dc579182015b828111156108db5782518255916020019190600101906108c0565b5b5090506108e991906108ed565b5090565b5b808211156109065760008160009055506001016108ee565b5090565b600061091d61091884610e33565b610e02565b90508281526020810184848401111561093557600080fd5b610940848285610f66565b509392505050565b600081359050610957816110d8565b92915050565b600082601f83011261096e57600080fd5b813561097e84826020860161090a565b91505092915050565b60006020828403121561099957600080fd5b60006109a784828501610948565b91505092915050565b6000602082840312156109c257600080fd5b600082013567ffffffffffffffff8111156109dc57600080fd5b6109e88482850161095d565b91505092915050565b60006109fd8383610c30565b905092915050565b610a0e81610f2a565b82525050565b610a1d81610f2a565b82525050565b6000610a2e82610e73565b610a388185610e96565b935083602082028501610a4a85610e63565b8060005b85811015610a865784840389528151610a6785826109f1565b9450610a7283610e89565b925060208a01995050600181019050610a4e565b50829750879550505050505092915050565b6000610aa382610e7e565b610aad8185610eb2565b9350610abd818560208601610f75565b610ac6816110c7565b840191505092915050565b6000610adc82610e7e565b610ae68185610ec3565b9350610af6818560208601610f75565b610aff816110c7565b840191505092915050565b6000610b17600f83610ec3565b91507f57616974203230207365636f6e647300000000000000000000000000000000006000830152602082019050919050565b6000610b57602783610ec3565b91507f4661696c656420746f207769746864726177206d6f6e65792066726f6d20636f60008301527f6e74726163742e000000000000000000000000000000000000000000000000006020830152604082019050919050565b6000610bbd603583610ec3565b91507f547279696e6720746f207769746864726177206d6f7265206d6f6e657920746860008301527f616e207468657920636f6e7472616374206861732e00000000000000000000006020830152604082019050919050565b6000610c23600083610ea7565b9150600082019050919050565b6000606083016000830151610c486000860182610a05565b5060208301518482036020860152610c608282610a98565b9150506040830151610c756040860182610c80565b508091505092915050565b610c8981610f5c565b82525050565b610c9881610f5c565b82525050565b6000610ca982610c16565b9150819050919050565b60006020820190508181036000830152610ccd8184610a23565b905092915050565b60006020820190508181036000830152610cef8184610ad1565b905092915050565b60006040820190508181036000830152610d118185610ad1565b9050610d206020830184610a14565b9392505050565b60006040820190508181036000830152610d418185610ad1565b9050610d506020830184610c8f565b9392505050565b60006020820190508181036000830152610d7081610b0a565b9050919050565b60006020820190508181036000830152610d9081610b4a565b9050919050565b60006020820190508181036000830152610db081610bb0565b9050919050565b6000602082019050610dcc6000830184610c8f565b92915050565b6000604082019050610de76000830185610c8f565b8181036020830152610df98184610ad1565b90509392505050565b6000604051905081810181811067ffffffffffffffff82111715610e2957610e28611098565b5b8060405250919050565b600067ffffffffffffffff821115610e4e57610e4d611098565b5b601f19601f8301169050602081019050919050565b6000819050602082019050919050565b600081519050919050565b600081519050919050565b6000602082019050919050565b600082825260208201905092915050565b600081905092915050565b600082825260208201905092915050565b600082825260208201905092915050565b6000610edf82610f5c565b9150610eea83610f5c565b9250827fffffffffffffffffffffffffffffffffffffffffffffffffffffffffffffffff03821115610f1f57610f1e61100b565b5b828201905092915050565b6000610f3582610f3c565b9050919050565b600073ffffffffffffffffffffffffffffffffffffffff82169050919050565b6000819050919050565b82818337600083830152505050565b60005b83811015610f93578082015181840152602081019050610f78565b83811115610fa2576000848401525b50505050565b60006002820490506001821680610fc057607f821691505b60208210811415610fd457610fd3611069565b5b50919050565b6000610fe582610f5c565b9150610ff083610f5c565b92508261100057610fff61103a565b5b828206905092915050565b7f4e487b7100000000000000000000000000000000000000000000000000000000600052601160045260246000fd5b7f4e487b7100000000000000000000000000000000000000000000000000000000600052601260045260246000fd5b7f4e487b7100000000000000000000000000000000000000000000000000000000600052602260045260246000fd5b7f4e487b7100000000000000000000000000000000000000000000000000000000600052604160045260246000fd5b6000601f19601f8301169050919050565b6110e181610f2a565b81146110ec57600080fd5b5056fe25642074726565207368616b6572732068617665207368616b656e20746865207472656521a2646970667358221220591b8fbc1187c1f8a3eb05663a318afb8bd6acfc08838d47b5978e9134790ddb64736f6c63430008000033",
  "linkReferences": {},
  "deployedLinkReferences": {}
}